{"abi":[{"type":"function","name":"MAX_PRICE","inputs":[],"outputs":[{"name":"","type":"uint256","internalType":"uint256"}],"stateMutability":"view"},{"type":"function","name":"MAX_TICK","inputs":[],"outputs":[{"name":"","type":"uint256","internalType":"uint256"}],"stateMutability":"view"},{"type":"function","name":"MIN_PRICE","inputs":[],"outputs":[{"name":"","type":"uint256","internalType":"uint256"}],"stateMutability":"view"},{"type":"function","name":"MIN_TICK","inputs":[],"outputs":[{"name":"","type":"uint256","internalType":"uint256"}],"stateMutability":"view"},{"type":"function","name":"TICK_COUNT","inputs":[],"outputs":[{"name":"","type":"uint256","internalType":"uint256"}],"stateMutability":"view"},{"type":"function","name":"TICK_SPACING","inputs":[],"outputs":[{"name":"","type":"uint256","internalType":"uint256"}],"stateMutability":"view"},{"type":"function","name":"findClearingPrice","inputs":[{"name":"tickStart","type":"uint256","internalType":"uint256"},{"name":"tickEnd","type":"uint256","internalType":"uint256"}],"outputs":[{"name":"clearingTick","type":"uint256","internalType":"uint256"},{"name":"matchedVolume","type":"uint256","internalType":"uint256"}],"stateMutability":"view"},{"type":"function","name":"getTickAggregate","inputs":[{"name":"tick","type":"uint256","internalType":"uint256"}],"outputs":[{"name":"buyVolume","type":"bytes32","internalType":"euint64"},{"name":"sellVolume","type":"bytes32","internalType":"euint64"},{"name":"buyCount","type":"uint256","internalType":"uint256"},{"name":"sellCount","type":"uint256","internalType":"uint256"}],"stateMutability":"view"},{"type":"function","name":"priceToTick","inputs":[{"name":"price","type":"uint256","internalType":"uint256"}],"outputs":[{"name":"tick","type":"uint256","internalType":"uint256"}],"stateMutability":"pure"},{"type":"function","name":"shouldFillOrder","inputs":[{"name":"isBuy","type":"bool","internalType":"bool"},{"name":"limitPrice","type":"bytes32","internalType":"euint64"},{"name":"clearingTick","type":"uint256","internalType":"uint256"}],"outputs":[{"name":"shouldFill","type":"bytes32","internalType":"ebool"}],"stateMutability":"nonpayable"},{"type":"function","name":"tickAggregates","inputs":[{"name":"","type":"uint256","internalType":"uint256"}],"outputs":[{"name":"buyVolume","type":"bytes32","internalType":"euint64"},{"name":"sellVolume","type":"bytes32","internalType":"euint64"},{"name":"buyCount","type":"uint256","internalType":"uint256"},{"name":"sellCount","type":"uint256","internalType":"uint256"}],"stateMutability":"view"},{"type":"function","name":"tickToPrice","inputs":[{"name":"tick","type":"uint256","internalType":"uint256"}],"outputs":[{"name":"price","type":"uint256","internalType":"uint256"}],"stateMutability":"pure"}],"bytecode":{"object":"0x6080604052348015600e575f80fd5b506108668061001c5f395ff3fe608060405234801561000f575f80fd5b50600436106100b1575f3560e01c80637765e0051161006e5780637765e0051461016a57806385a6d86414610173578063a1634b141461019b578063ad9f20a6146101a2578063c8b27670146101b0578063cd9743dc146101c3575f80fd5b806301c11d96146100b557806318f214b5146100d85780632839949b146100eb5780632bca4e8e146100fe57806346ca626b146101525780636882a88814610161575b5f80fd5b6100c568056bc75e2d6310000081565b6040519081526020015b60405180910390f35b6100c56100e63660046106f4565b610218565b6100c56100f93660046106f4565b6102a9565b61013261010c3660046106f4565b5f6020819052908152604090208054600182015460028301546003909301549192909184565b6040805194855260208501939093529183015260608201526080016100cf565b6100c567015fb7f9b8c3800081565b6100c56103e781565b6100c56103e881565b61018661018136600461070b565b610314565b604080519283526020830191909152016100cf565b6100c55f81565b6100c5662386f26fc1000081565b6100c56101be36600461072b565b61040f565b6101326101d13660046106f4565b5f9081526020818152604091829020825160808101845281548082526001830154938201849052600283015494820185905260039092015460609091018190529093919291565b5f662386f26fc100008210158015610239575068056bc75e2d631000008211155b61027f5760405162461bcd60e51b81526020600482015260126024820152717072696365206f7574206f662072616e676560701b60448201526064015b60405180910390fd5b67015fb7f9b8c38000610299662386f26fc1000084610775565b6102a39190610788565b92915050565b5f6103e78211156102f15760405162461bcd60e51b81526020600482015260126024820152717469636b206f7574206f6620626f756e647360701b6044820152606401610276565b61030367015fb7f9b8c38000836107a7565b6102a390662386f26fc100006107be565b5f8082841115801561032857506103e78311155b6103695760405162461bcd60e51b8152602060048201526012602482015271696e76616c6964207469636b2072616e676560701b6044820152606401610276565b835f815b858111610403575f8181526020818152604080832081516080810183528154808252600183015494820185905260028301549382019390935260039091015460608201529290919067ffffffffffffffff808316908416106103cf57816103d1565b825b67ffffffffffffffff169050858111156103ec578095508496505b5050505080806103fb906107d1565b91505061036d565b50909590945092505050565b5f8061041a83610445565b905084156104345761042c848261045b565b91505061043e565b61042c8482610489565b9392505050565b5f6102a38267ffffffffffffffff1660056104b7565b5f8261046d5761046a5f610445565b92505b8161047e5761047b5f610445565b91505b61043e83835f610574565b5f8261049b576104985f610445565b92505b816104ac576104a95f610445565b91505b61043e83835f610657565b7f9e7b61f58c47dc699ac88507c4f5bb9f121c03808c5676a8078fe583e464970154604051639cd07acb60e01b81525f917f9e7b61f58c47dc699ac88507c4f5bb9f121c03808c5676a8078fe583e4649700916001600160a01b0390911690639cd07acb9061052c90879087906004016107e9565b6020604051808303815f875af1158015610548573d5f803e3d5ffd5b505050506040513d601f19601f8201168201806040525081019061056c9190610819565b949350505050565b5f8082156105875750600160f81b61058a565b505f5b7f9e7b61f58c47dc699ac88507c4f5bb9f121c03808c5676a8078fe583e464970154604051631391547f60e01b815260048101879052602481018690526001600160f81b0319831660448201527f9e7b61f58c47dc699ac88507c4f5bb9f121c03808c5676a8078fe583e4649700916001600160a01b031690631391547f906064015b6020604051808303815f875af1158015610629573d5f803e3d5ffd5b505050506040513d601f19601f8201168201806040525081019061064d9190610819565b9695505050505050565b5f80821561066a5750600160f81b61066d565b505f5b7f9e7b61f58c47dc699ac88507c4f5bb9f121c03808c5676a8078fe583e464970154604051631d44e90160e21b815260048101879052602481018690526001600160f81b0319831660448201527f9e7b61f58c47dc699ac88507c4f5bb9f121c03808c5676a8078fe583e4649700916001600160a01b031690637513a4049060640161060d565b5f60208284031215610704575f80fd5b5035919050565b5f806040838503121561071c575f80fd5b50508035926020909101359150565b5f805f6060848603121561073d575f80fd5b8335801515811461074c575f80fd5b95602085013595506040909401359392505050565b634e487b7160e01b5f52601160045260245ffd5b818103818111156102a3576102a3610761565b5f826107a257634e487b7160e01b5f52601260045260245ffd5b500490565b80820281158282048414176102a3576102a3610761565b808201808211156102a3576102a3610761565b5f600182016107e2576107e2610761565b5060010190565b828152604081016054831061080c57634e487b7160e01b5f52602160045260245ffd5b8260208301529392505050565b5f60208284031215610829575f80fd5b505191905056fea26469706673582212206e463260226a72c1620591317d99594fb8ef009fff3a652fa18c37e8839028a164736f6c634300081a0033","linkReferences":{}},"methodIdentifiers":{"MAX_PRICE()":"01c11d96","MAX_TICK()":"6882a888","MIN_PRICE()":"ad9f20a6","MIN_TICK()":"a1634b14","TICK_COUNT()":"7765e005","TICK_SPACING()":"46ca626b","findClearingPrice(uint256,uint256)":"85a6d864","getTickAggregate(uint256)":"cd9743dc","priceToTick(uint256)":"18f214b5","shouldFillOrder(bool,bytes32,uint256)":"c8b27670","tickAggregates(uint256)":"2bca4e8e","tickToPrice(uint256)":"2839949b"},"id":28}