{"abi":[{"type":"constructor","inputs":[{"name":"_keeper","type":"address","internalType":"address"},{"name":"_baseToken","type":"address","internalType":"address"},{"name":"_quoteToken","type":"address","internalType":"address"},{"name":"_batchDuration","type":"uint256","internalType":"uint256"}],"stateMutability":"nonpayable"},{"type":"function","name":"MAX_PRICE","inputs":[],"outputs":[{"name":"","type":"uint256","internalType":"uint256"}],"stateMutability":"view"},{"type":"function","name":"MAX_TICK","inputs":[],"outputs":[{"name":"","type":"uint256","internalType":"uint256"}],"stateMutability":"view"},{"type":"function","name":"MIN_PRICE","inputs":[],"outputs":[{"name":"","type":"uint256","internalType":"uint256"}],"stateMutability":"view"},{"type":"function","name":"MIN_TICK","inputs":[],"outputs":[{"name":"","type":"uint256","internalType":"uint256"}],"stateMutability":"view"},{"type":"function","name":"TICK_COUNT","inputs":[],"outputs":[{"name":"","type":"uint256","internalType":"uint256"}],"stateMutability":"view"},{"type":"function","name":"TICK_SPACING","inputs":[],"outputs":[{"name":"","type":"uint256","internalType":"uint256"}],"stateMutability":"view"},{"type":"function","name":"baseToken","inputs":[],"outputs":[{"name":"","type":"address","internalType":"address"}],"stateMutability":"view"},{"type":"function","name":"batchDuration","inputs":[],"outputs":[{"name":"","type":"uint256","internalType":"uint256"}],"stateMutability":"view"},{"type":"function","name":"batchOrders","inputs":[{"name":"","type":"uint256","internalType":"uint256"},{"name":"","type":"uint256","internalType":"uint256"}],"outputs":[{"name":"","type":"uint256","internalType":"uint256"}],"stateMutability":"view"},{"type":"function","name":"batches","inputs":[{"name":"","type":"uint256","internalType":"uint256"}],"outputs":[{"name":"batchId","type":"uint256","internalType":"uint256"},{"name":"startTime","type":"uint256","internalType":"uint256"},{"name":"endTime","type":"uint256","internalType":"uint256"},{"name":"status","type":"uint8","internalType":"enum IBatchAuction.BatchStatus"},{"name":"clearingPrice","type":"uint256","internalType":"uint256"},{"name":"orderCount","type":"uint256","internalType":"uint256"}],"stateMutability":"view"},{"type":"function","name":"clearBatch","inputs":[{"name":"tickStart","type":"uint256","internalType":"uint256"},{"name":"tickEnd","type":"uint256","internalType":"uint256"}],"outputs":[],"stateMutability":"nonpayable"},{"type":"function","name":"closeBatch","inputs":[],"outputs":[],"stateMutability":"nonpayable"},{"type":"function","name":"currentBatchId","inputs":[],"outputs":[{"name":"","type":"uint256","internalType":"uint256"}],"stateMutability":"view"},{"type":"function","name":"findClearingPrice","inputs":[{"name":"tickStart","type":"uint256","internalType":"uint256"},{"name":"tickEnd","type":"uint256","internalType":"uint256"}],"outputs":[{"name":"clearingTick","type":"uint256","internalType":"uint256"},{"name":"matchedVolume","type":"uint256","internalType":"uint256"}],"stateMutability":"view"},{"type":"function","name":"getBatchOrders","inputs":[{"name":"batchId","type":"uint256","internalType":"uint256"}],"outputs":[{"name":"","type":"uint256[]","internalType":"uint256[]"}],"stateMutability":"view"},{"type":"function","name":"getCurrentBatch","inputs":[],"outputs":[{"name":"","type":"tuple","internalType":"struct IBatchAuction.Batch","components":[{"name":"batchId","type":"uint256","internalType":"uint256"},{"name":"startTime","type":"uint256","internalType":"uint256"},{"name":"endTime","type":"uint256","internalType":"uint256"},{"name":"status","type":"uint8","internalType":"enum IBatchAuction.BatchStatus"},{"name":"clearingPrice","type":"uint256","internalType":"uint256"},{"name":"orderCount","type":"uint256","internalType":"uint256"}]}],"stateMutability":"view"},{"type":"function","name":"getOrder","inputs":[{"name":"orderId","type":"uint256","internalType":"uint256"}],"outputs":[{"name":"","type":"tuple","internalType":"struct IBatchAuction.Order","components":[{"name":"trader","type":"address","internalType":"address"},{"name":"orderType","type":"uint8","internalType":"enum IBatchAuction.OrderType"},{"name":"size","type":"bytes32","internalType":"euint64"},{"name":"limitPrice","type":"bytes32","internalType":"euint64"},{"name":"batchId","type":"uint256","internalType":"uint256"},{"name":"filled","type":"bool","internalType":"bool"}]}],"stateMutability":"view"},{"type":"function","name":"getTickAggregate","inputs":[{"name":"tick","type":"uint256","internalType":"uint256"}],"outputs":[{"name":"buyVolume","type":"bytes32","internalType":"euint64"},{"name":"sellVolume","type":"bytes32","internalType":"euint64"},{"name":"buyCount","type":"uint256","internalType":"uint256"},{"name":"sellCount","type":"uint256","internalType":"uint256"}],"stateMutability":"view"},{"type":"function","name":"isOrderFilled","inputs":[{"name":"orderId","type":"uint256","internalType":"uint256"}],"outputs":[{"name":"","type":"bool","internalType":"bool"}],"stateMutability":"view"},{"type":"function","name":"keeper","inputs":[],"outputs":[{"name":"","type":"address","internalType":"address"}],"stateMutability":"view"},{"type":"function","name":"nextOrderId","inputs":[],"outputs":[{"name":"","type":"uint256","internalType":"uint256"}],"stateMutability":"view"},{"type":"function","name":"orders","inputs":[{"name":"","type":"uint256","internalType":"uint256"}],"outputs":[{"name":"trader","type":"address","internalType":"address"},{"name":"orderType","type":"uint8","internalType":"enum IBatchAuction.OrderType"},{"name":"size","type":"bytes32","internalType":"euint64"},{"name":"limitPrice","type":"bytes32","internalType":"euint64"},{"name":"batchId","type":"uint256","internalType":"uint256"},{"name":"filled","type":"bool","internalType":"bool"}],"stateMutability":"view"},{"type":"function","name":"priceToTick","inputs":[{"name":"price","type":"uint256","internalType":"uint256"}],"outputs":[{"name":"tick","type":"uint256","internalType":"uint256"}],"stateMutability":"pure"},{"type":"function","name":"quoteToken","inputs":[],"outputs":[{"name":"","type":"address","internalType":"address"}],"stateMutability":"view"},{"type":"function","name":"settleBatch","inputs":[{"name":"startIndex","type":"uint256","internalType":"uint256"},{"name":"endIndex","type":"uint256","internalType":"uint256"}],"outputs":[],"stateMutability":"nonpayable"},{"type":"function","name":"shouldFillOrder","inputs":[{"name":"isBuy","type":"bool","internalType":"bool"},{"name":"limitPrice","type":"bytes32","internalType":"euint64"},{"name":"clearingTick","type":"uint256","internalType":"uint256"}],"outputs":[{"name":"shouldFill","type":"bytes32","internalType":"ebool"}],"stateMutability":"nonpayable"},{"type":"function","name":"submitOrder","inputs":[{"name":"orderType","type":"uint8","internalType":"enum IBatchAuction.OrderType"},{"name":"encryptedSize","type":"bytes32","internalType":"externalEuint64"},{"name":"encryptedPrice","type":"bytes32","internalType":"externalEuint64"},{"name":"sizeProof","type":"bytes","internalType":"bytes"},{"name":"priceProof","type":"bytes","internalType":"bytes"}],"outputs":[{"name":"orderId","type":"uint256","internalType":"uint256"}],"stateMutability":"nonpayable"},{"type":"function","name":"tickAggregates","inputs":[{"name":"","type":"uint256","internalType":"uint256"}],"outputs":[{"name":"buyVolume","type":"bytes32","internalType":"euint64"},{"name":"sellVolume","type":"bytes32","internalType":"euint64"},{"name":"buyCount","type":"uint256","internalType":"uint256"},{"name":"sellCount","type":"uint256","internalType":"uint256"}],"stateMutability":"view"},{"type":"function","name":"tickToPrice","inputs":[{"name":"tick","type":"uint256","internalType":"uint256"}],"outputs":[{"name":"price","type":"uint256","internalType":"uint256"}],"stateMutability":"pure"},{"type":"event","name":"BatchCleared","inputs":[{"name":"batchId","type":"uint256","indexed":true,"internalType":"uint256"},{"name":"clearingPrice","type":"uint256","indexed":false,"internalType":"uint256"},{"name":"volume","type":"uint256","indexed":false,"internalType":"uint256"}],"anonymous":false},{"type":"event","name":"BatchClosed","inputs":[{"name":"batchId","type":"uint256","indexed":true,"internalType":"uint256"},{"name":"timestamp","type":"uint256","indexed":false,"internalType":"uint256"}],"anonymous":false},{"type":"event","name":"BatchOpened","inputs":[{"name":"batchId","type":"uint256","indexed":true,"internalType":"uint256"},{"name":"startTime","type":"uint256","indexed":false,"internalType":"uint256"},{"name":"duration","type":"uint256","indexed":false,"internalType":"uint256"}],"anonymous":false},{"type":"event","name":"BatchSettled","inputs":[{"name":"batchId","type":"uint256","indexed":true,"internalType":"uint256"},{"name":"filledOrders","type":"uint256","indexed":false,"internalType":"uint256"}],"anonymous":false},{"type":"event","name":"OrderFilled","inputs":[{"name":"batchId","type":"uint256","indexed":true,"internalType":"uint256"},{"name":"orderId","type":"uint256","indexed":true,"internalType":"uint256"},{"name":"trader","type":"address","indexed":true,"internalType":"address"}],"anonymous":false},{"type":"event","name":"OrderSubmitted","inputs":[{"name":"batchId","type":"uint256","indexed":true,"internalType":"uint256"},{"name":"orderId","type":"uint256","indexed":true,"internalType":"uint256"},{"name":"trader","type":"address","indexed":true,"internalType":"address"},{"name":"orderType","type":"uint8","indexed":false,"internalType":"enum IBatchAuction.OrderType"}],"anonymous":false},{"type":"error","name":"SenderNotAllowedToUseHandle","inputs":[{"name":"handle","type":"bytes32","internalType":"bytes32"},{"name":"sender","type":"address","internalType":"address"}]},{"type":"error","name":"ZamaProtocolUnsupported","inputs":[]}],"bytecode":{"object":"0x608060405234801561000f575f80fd5b5060405161229a38038061229a83398101604081905261002e9161053b565b6001600160a01b03841661007a5760405162461bcd60e51b815260206004820152600e60248201526d34b73b30b634b21035b2b2b832b960911b60448201526064015b60405180910390fd5b6001600160a01b0383166100c55760405162461bcd60e51b815260206004820152601260248201527134b73b30b634b2103130b9b2903a37b5b2b760711b6044820152606401610071565b6001600160a01b03821661011b5760405162461bcd60e51b815260206004820152601360248201527f696e76616c69642071756f746520746f6b656e000000000000000000000000006044820152606401610071565b5f811161015d5760405162461bcd60e51b815260206004820152601060248201526f34b73b30b634b210323ab930ba34b7b760811b6044820152606401610071565b610211610168610264565b80517f9e7b61f58c47dc699ac88507c4f5bb9f121c03808c5676a8078fe583e464970080546001600160a01b03199081166001600160a01b039384161790915560208301517f9e7b61f58c47dc699ac88507c4f5bb9f121c03808c5676a8078fe583e46497018054831691841691909117905560408301517f9e7b61f58c47dc699ac88507c4f5bb9f121c03808c5676a8078fe583e46497028054909216921691909117905550565b600180546001600160a01b038087166001600160a01b031992831617909255600280548684169083161790556003805492851692909116919091179055600481905561025b610413565b505050506105dc565b604080516060810182525f8082526020820181905291810191909152466001036102fd575060408051606080820183525f8083526020808401829052928401528251908101835273ca2e8f1f656cd25c01f05d0b243ab1ecd4a8ffb6815273d82385dada1ae3e969447f20a3164f6213100e75918101919091527377627828a55156b04ac0dc0eb30467f1a552bb039181019190915290565b4662aa36a70361037c575060408051606080820183525f8083526020808401829052928401528251908101835273f0ffdc93b7e186bc2f8cb3daa75d86d1930a433d81527392c920834ec8941d2c77d188936e1f7a6f49c1279181019190915273be0e383937d564d7ff0bc3b46c51f0bf8d5c311a9181019190915290565b46617a69036103fa575060408051606080820183525f808352602080840182905292840152825190810183527350157cffd6bbfa2dece204a89ec419c23ef5755d815273e3a9105a3a932253a70f126eb1e3b589c643dd249181019190915273901f8942346f7ab3a01f6d7613119bca447bb0309181019190915290565b6040516373cac13b60e01b815260040160405180910390fd5b60058054905f61042283610597565b91905055506040518060c0016040528060055481526020014281526020016004544261044e91906105af565b81526020015f81526020015f81526020015f81525060075f60055481526020019081526020015f205f820151815f015560208201518160010155604082015181600201556060820151816003015f6101000a81548160ff021916908360038111156104bb576104bb6105c8565b02179055506080820151816004015560a082015181600501559050506005547fd09ef78fc8f4a095d20a562d6e705815887c348e3c82145a7820c72136953a6b42600454604051610516929190918252602082015260400190565b60405180910390a2565b80516001600160a01b0381168114610536575f80fd5b919050565b5f805f806080858703121561054e575f80fd5b61055785610520565b935061056560208601610520565b925061057360408601610520565b6060959095015193969295505050565b634e487b7160e01b5f52601160045260245ffd5b5f600182016105a8576105a8610583565b5060010190565b808201808211156105c2576105c2610583565b92915050565b634e487b7160e01b5f52602160045260245ffd5b611cb1806105e95f395ff3fe608060405234801561000f575f80fd5b50600436106101c6575f3560e01c80639c9563a2116100fe578063b32c4d8d1161009e578063d09ef2411161006e578063d09ef241146104ab578063d425cb6f146104cb578063e013f9cf14610500578063e22305ca14610513575f80fd5b8063b32c4d8d146103d8578063c55dae6314610430578063c8b2767014610443578063cd9743dc14610456575f80fd5b8063ac3851cd116100d9578063ac3851cd1461038f578063aced1661146103a4578063ad28484a146103b7578063ad9f20a6146103ca575f80fd5b80639c9563a21461031d578063a1634b1414610326578063a85c38ef1461032d575f80fd5b80632a58b330116101695780636882a888116101445780636882a888146102d05780637716da66146102d95780637765e005146102ec57806385a6d864146102f5575f80fd5b80632a58b330146102645780632bca4e8e1461026d57806346ca626b146102c1575f80fd5b80631f96c1a8116101a45780631f96c1a814610209578063217a4b701461021357806326159f9b1461023e5780632839949b14610251575f80fd5b806301c11d96146101ca5780630a763da1146101ed57806318f214b5146101f6575b5f80fd5b6101da68056bc75e2d6310000081565b6040519081526020015b60405180910390f35b6101da60055481565b6101da6102043660046117dc565b610533565b6102116105c4565b005b600354610226906001600160a01b031681565b6040516001600160a01b0390911681526020016101e4565b61021161024c3660046117f3565b6106e6565b6101da61025f3660046117dc565b6107f2565b6101da60065481565b6102a161027b3660046117dc565b5f6020819052908152604090208054600182015460028301546003909301549192909184565b6040805194855260208501939093529183015260608201526080016101e4565b6101da67015fb7f9b8c3800081565b6101da6103e781565b6101da6102e7366004611851565b61085d565b6101da6103e881565b6103086103033660046117f3565b610b10565b604080519283526020830191909152016101e4565b6101da60045481565b6101da5f81565b61037d61033b3660046117dc565b60086020525f9081526040902080546001820154600283015460038401546004909401546001600160a01b0384169460ff600160a01b90950485169490911686565b6040516101e496959493929190611910565b610397610c0d565b6040516101e49190611962565b600154610226906001600160a01b031681565b6102116103c53660046117f3565b610ca1565b6101da662386f26fc1000081565b61041e6103e63660046117dc565b60076020525f908152604090208054600182015460028301546003840154600485015460059095015493949293919260ff9091169186565b6040516101e4969594939291906119ae565b600254610226906001600160a01b031681565b6101da6104513660046119f4565b610f9d565b6102a16104643660046117dc565b5f9081526020818152604091829020825160808101845281548082526001830154938201849052600283015494820185905260039092015460609091018190529093919291565b6104be6104b93660046117dc565b610fd3565b6040516101e49190611a26565b6104f06104d93660046117dc565b5f9081526008602052604090206004015460ff1690565b60405190151581526020016101e4565b6101da61050e3660046117f3565b611094565b6105266105213660046117dc565b6110bf565b6040516101e49190611a7b565b5f662386f26fc100008210158015610554575068056bc75e2d631000008211155b61059a5760405162461bcd60e51b81526020600482015260126024820152717072696365206f7574206f662072616e676560701b60448201526064015b60405180910390fd5b67015fb7f9b8c380006105b4662386f26fc1000084611ad1565b6105be9190611ae4565b92915050565b6001546001600160a01b031633146105ee5760405162461bcd60e51b815260040161059190611b03565b6005545f9081526007602052604081209060038083015460ff1690811115610618576106186118e8565b146106565760405162461bcd60e51b815260206004820152600e60248201526d3130ba31b4103737ba1037b832b760911b6044820152606401610591565b806002015442101561069e5760405162461bcd60e51b815260206004820152601160248201527018985d18da081b9bdd08195e1c1a5c9959607a1b6044820152606401610591565b60038101805460ff191660011790556005546040514281527fed76190d94e2079764a112387a25d1b74945a43c0b92ce5f4f65b391b66390fe9060200160405180910390a250565b6001546001600160a01b031633146107105760405162461bcd60e51b815260040161059190611b03565b6005545f908152600760205260409020600160038083015460ff169081111561073b5761073b6118e8565b1461077b5760405162461bcd60e51b815260206004820152601060248201526f18985d18da081b9bdd0818db1bdcd95960821b6044820152606401610591565b61078660055461111e565b5f806107928585610b10565b6004850182905560038501805460ff191660021790556005546040805184815260208101849052939550919350917f7c636a3682a70e0854001eef6430229fba9a3c818f74942b253adf78a7e7f3ab910160405180910390a25050505050565b5f6103e782111561083a5760405162461bcd60e51b81526020600482015260126024820152717469636b206f7574206f6620626f756e647360701b6044820152606401610591565b61084c67015fb7f9b8c3800083611b28565b6105be90662386f26fc10000611b3f565b6005545f9081526007602052604081208160038083015460ff1690811115610887576108876118e8565b146108c55760405162461bcd60e51b815260206004820152600e60248201526d3130ba31b4103737ba1037b832b760911b6044820152606401610591565b806002015442106109085760405162461bcd60e51b815260206004820152600d60248201526c18985d18da08195e1c1a5c9959609a1b6044820152606401610591565b5f6109488988888080601f0160208091040260200160405190810160405280939291908181526020018383808284375f9201919091525061125d92505050565b90505f61098a8987878080601f0160208091040260200160405190810160405280939291908181526020018383808284375f9201919091525061125d92505050565b600680549192505f61099b83611b52565b9190505593506040518060c00160405280336001600160a01b031681526020018c60018111156109cd576109cd6118e8565b81526020808201859052604080830185905260055460608401525f608090930183905287835260088252909120825181546001600160a01b039091166001600160a01b031982168117835592840151919283916001600160a81b03191617600160a01b836001811115610a4257610a426118e8565b0217905550604082810151600183810191909155606084015160028401556080840151600384015560a0909301516004909201805460ff191692151592909217909155600580545f90815260096020908152928120805494850181558152918220909201869055908401805491610ab883611b52565b9190505550336001600160a01b0316846005547fa7c0e68904a56facb3c386d06017882f253c39eb3579f23b5d9ad4ad65bb9f488e604051610afa9190611b6a565b60405180910390a4505050979650505050505050565b5f80828411158015610b2457506103e78311155b610b655760405162461bcd60e51b8152602060048201526012602482015271696e76616c6964207469636b2072616e676560701b6044820152606401610591565b835f815b858111610bff575f8181526020818152604080832081516080810183528154808252600183015494820185905260028301549382019390935260039091015460608201529290919067ffffffffffffffff80831690841610610bcb5781610bcd565b825b67ffffffffffffffff16905085811115610be8578095508496505b505050508080610bf790611b52565b915050610b69565b5090925090505b9250929050565b610c1561179b565b60075f60055481526020019081526020015f206040518060c00160405290815f82015481526020016001820154815260200160028201548152602001600382015f9054906101000a900460ff166003811115610c7357610c736118e8565b6003811115610c8457610c846118e8565b815260200160048201548152602001600582015481525050905090565b6001546001600160a01b03163314610ccb5760405162461bcd60e51b815260040161059190611b03565b6005545f908152600760205260409020600260038083015460ff1690811115610cf657610cf66118e8565b14610d375760405162461bcd60e51b815260206004820152601160248201527018985d18da081b9bdd0818db19585c9959607a1b6044820152606401610591565b6005545f90815260096020908152604080832080548251818502810185019093528083529192909190830182828015610d8d57602002820191905f5260205f20905b815481526020019060010190808311610d79575b505050505090508051831115610dd55760405162461bcd60e51b815260206004820152600d60248201526c696e76616c69642072616e676560981b6044820152606401610591565b5f845b84811015610f3f575f838281518110610df357610df3611b78565b6020908102919091018101515f81815260089092526040822090925090610e41818354600160a01b900460ff166001811115610e3157610e316118e8565b1483600201548960040154610f9d565b90508015801590610f2f576040805160c0810190915283546001600160a01b0381168252610ed6919085906020830190600160a01b900460ff166001811115610e8c57610e8c6118e8565b6001811115610e9d57610e9d6118e8565b815260018201546020820152600282015460408201526003820154606082015260049182015460ff1615156080909101528a01546112c3565b60048301805460ff1916600117905585610eef81611b52565b84546005546040519299506001600160a01b03909116925086917f445351e64671a6055fec73635127d03ba432788643dc63d396a66e1bbccc3e2c905f90a45b505060019092019150610dd89050565b5081518410610f96576003838101805460ff191690911790556005546040518281527f0a0af9013a8d9968e4532086fbc7137cf11ee8b8f9d57c8e5e89589b416739089060200160405180910390a2610f966112d3565b5050505050565b5f80610fa8836113e0565b90508415610fc257610fba84826113f6565b915050610fcc565b610fba8482611424565b9392505050565b6040805160c0810182525f80825260208201819052918101829052606081018290526080810182905260a08101919091525f82815260086020908152604091829020825160c0810190935280546001600160a01b03811684529091830190600160a01b900460ff16600181111561104c5761104c6118e8565b600181111561105d5761105d6118e8565b815260018201546020820152600282015460408201526003820154606082015260049091015460ff16151560809091015292915050565b6009602052815f5260405f2081815481106110ad575f80fd5b905f5260205f20015f91509150505481565b5f8181526009602090815260409182902080548351818402810184019094528084526060939283018282801561111257602002820191905f5260205f20905b8154815260200190600101908083116110fe575b50505050509050919050565b5f8181526009602090815260408083208054825181850281018501909352808352919290919083018282801561117157602002820191905f5260205f20905b81548152602001906001019080831161115d575b505050505090505f5b8151811015611258575f60085f84848151811061119957611199611b78565b60209081029190910181015182528181019290925260409081015f20815160c0810190925280546001600160a01b03811683529192909190830190600160a01b900460ff1660018111156111ef576111ef6118e8565b6001811115611200576112006118e8565b815260018201546020820152600282015460408201526003820154606082015260049091015460ff16151560809091015290505f808260200151600181111561124b5761124b6118e8565b149050505060010161117a565b505050565b5f81515f146112795761127283836005611452565b90506105be565b825f8190036112935761128b5f6113e0565b9150506105be565b61129d813361154c565b610fcc57604051630276b5d960e01b815260048101829052336024820152604401610591565b5f6112cd826107f2565b50505050565b60058054905f6112e283611b52565b91905055506040518060c0016040528060055481526020014281526020016004544261130e9190611b3f565b81526020015f81526020015f81526020015f81525060075f60055481526020019081526020015f205f820151815f015560208201518160010155604082015181600201556060820151816003015f6101000a81548160ff0219169083600381111561137b5761137b6118e8565b02179055506080820151816004015560a082015181600501559050506005547fd09ef78fc8f4a095d20a562d6e705815887c348e3c82145a7820c72136953a6b426004546040516113d6929190918252602082015260400190565b60405180910390a2565b5f6105be8267ffffffffffffffff1660056115d8565b5f82611408576114055f6113e0565b92505b81611419576114165f6113e0565b91505b610fcc83835f611667565b5f82611436576114335f6113e0565b92505b81611447576114445f6113e0565b91505b610fcc83835f611724565b5f80516020611c3c8339815191525460405163045fc19560e11b81525f915f80516020611c5c833981519152916001600160a01b03909116906308bf832a906114a5908890339089908990600401611b9c565b6020604051808303815f875af11580156114c1573d5f803e3d5ffd5b505050506040513d601f19601f820116820180604052508101906114e59190611bf5565b8154604051630f8e573b60e21b8152600481018390523360248201529193506001600160a01b031690633e395cec906044015f604051808303815f87803b15801561152e575f80fd5b505af1158015611540573d5f803e3d5ffd5b50505050509392505050565b5f805f80516020611c5c83398151915280546040516382027b6d60e01b8152600481018790526001600160a01b0386811660248301529293509116906382027b6d90604401602060405180830381865afa1580156115ac573d5f803e3d5ffd5b505050506040513d601f19601f820116820180604052508101906115d09190611c0c565b949350505050565b5f80516020611c3c83398151915254604051639cd07acb60e01b81525f915f80516020611c5c833981519152916001600160a01b0390911690639cd07acb906116279087908790600401611c27565b6020604051808303815f875af1158015611643573d5f803e3d5ffd5b505050506040513d601f19601f820116820180604052508101906115d09190611bf5565b5f80821561167a5750600160f81b61167d565b505f5b5f80516020611c3c83398151915254604051631391547f60e01b815260048101879052602481018690526001600160f81b0319831660448201525f80516020611c5c833981519152916001600160a01b031690631391547f906064015b6020604051808303815f875af11580156116f6573d5f803e3d5ffd5b505050506040513d601f19601f8201168201806040525081019061171a9190611bf5565b9695505050505050565b5f8082156117375750600160f81b61173a565b505f5b5f80516020611c3c83398151915254604051631d44e90160e21b815260048101879052602481018690526001600160f81b0319831660448201525f80516020611c5c833981519152916001600160a01b031690637513a404906064016116da565b6040518060c001604052805f81526020015f81526020015f81526020015f60038111156117ca576117ca6118e8565b81526020015f81526020015f81525090565b5f602082840312156117ec575f80fd5b5035919050565b5f8060408385031215611804575f80fd5b50508035926020909101359150565b5f8083601f840112611823575f80fd5b50813567ffffffffffffffff81111561183a575f80fd5b602083019150836020828501011115610c06575f80fd5b5f805f805f805f60a0888a031215611867575f80fd5b873560028110611875575f80fd5b96506020880135955060408801359450606088013567ffffffffffffffff81111561189e575f80fd5b6118aa8a828b01611813565b909550935050608088013567ffffffffffffffff8111156118c9575f80fd5b6118d58a828b01611813565b989b979a50959850939692959293505050565b634e487b7160e01b5f52602160045260245ffd5b6002811061190c5761190c6118e8565b9052565b6001600160a01b038716815260c0810161192d60208301886118fc565b85604083015284606083015283608083015282151560a0830152979650505050505050565b6004811061190c5761190c6118e8565b5f60c08201905082518252602083015160208301526040830151604083015260608301516119936060840182611952565b506080830151608083015260a083015160a083015292915050565b868152602081018690526040810185905260c081016119d06060830186611952565b608082019390935260a00152949350505050565b80151581146119f1575f80fd5b50565b5f805f60608486031215611a06575f80fd5b8335611a11816119e4565b95602085013595506040909401359392505050565b81516001600160a01b0316815260208083015160c0830191611a4a908401826118fc565b5060408301516040830152606083015160608301526080830151608083015260a0830151151560a083015292915050565b602080825282518282018190525f918401906040840190835b81811015611ab2578351835260209384019390920191600101611a94565b509095945050505050565b634e487b7160e01b5f52601160045260245ffd5b818103818111156105be576105be611abd565b5f82611afe57634e487b7160e01b5f52601260045260245ffd5b500490565b6020808252600b908201526a37b7363c9035b2b2b832b960a91b604082015260600190565b80820281158282048414176105be576105be611abd565b808201808211156105be576105be611abd565b5f60018201611b6357611b63611abd565b5060010190565b602081016105be82846118fc565b634e487b7160e01b5f52603260045260245ffd5b6054811061190c5761190c6118e8565b84815260018060a01b0384166020820152608060408201525f8351806080840152806020860160a085015e5f60a0828501015260a0601f19601f830116840101915050611bec6060830184611b8c565b95945050505050565b5f60208284031215611c05575f80fd5b5051919050565b5f60208284031215611c1c575f80fd5b8151610fcc816119e4565b82815260408101610fcc6020830184611b8c56fe9e7b61f58c47dc699ac88507c4f5bb9f121c03808c5676a8078fe583e46497019e7b61f58c47dc699ac88507c4f5bb9f121c03808c5676a8078fe583e4649700a2646970667358221220263cdfc6f9a3c7955039745df7d313ab7e5ea8885b1e971db2d662f39703141964736f6c634300081a0033","linkReferences":{}},"methodIdentifiers":{"MAX_PRICE()":"01c11d96","MAX_TICK()":"6882a888","MIN_PRICE()":"ad9f20a6","MIN_TICK()":"a1634b14","TICK_COUNT()":"7765e005","TICK_SPACING()":"46ca626b","baseToken()":"c55dae63","batchDuration()":"9c9563a2","batchOrders(uint256,uint256)":"e013f9cf","batches(uint256)":"b32c4d8d","clearBatch(uint256,uint256)":"26159f9b","closeBatch()":"1f96c1a8","currentBatchId()":"0a763da1","findClearingPrice(uint256,uint256)":"85a6d864","getBatchOrders(uint256)":"e22305ca","getCurrentBatch()":"ac3851cd","getOrder(uint256)":"d09ef241","getTickAggregate(uint256)":"cd9743dc","isOrderFilled(uint256)":"d425cb6f","keeper()":"aced1661","nextOrderId()":"2a58b330","orders(uint256)":"a85c38ef","priceToTick(uint256)":"18f214b5","quoteToken()":"217a4b70","settleBatch(uint256,uint256)":"ad28484a","shouldFillOrder(bool,bytes32,uint256)":"c8b27670","submitOrder(uint8,bytes32,bytes32,bytes,bytes)":"7716da66","tickAggregates(uint256)":"2bca4e8e","tickToPrice(uint256)":"2839949b"},"id":27}