{"abi":[{"type":"constructor","inputs":[{"name":"_name","type":"string","internalType":"string"},{"name":"_symbol","type":"string","internalType":"string"}],"stateMutability":"nonpayable"},{"type":"function","name":"balanceOf","inputs":[{"name":"account","type":"address","internalType":"address"}],"outputs":[{"name":"","type":"bytes32","internalType":"euint64"}],"stateMutability":"view"},{"type":"function","name":"balanceOfDecrypted","inputs":[{"name":"account","type":"address","internalType":"address"}],"outputs":[{"name":"","type":"uint64","internalType":"uint64"}],"stateMutability":"view"},{"type":"function","name":"decimals","inputs":[],"outputs":[{"name":"","type":"uint8","internalType":"uint8"}],"stateMutability":"view"},{"type":"function","name":"mint","inputs":[{"name":"to","type":"address","internalType":"address"},{"name":"amount","type":"uint256","internalType":"uint256"}],"outputs":[],"stateMutability":"nonpayable"},{"type":"function","name":"name","inputs":[],"outputs":[{"name":"","type":"string","internalType":"string"}],"stateMutability":"view"},{"type":"function","name":"symbol","inputs":[],"outputs":[{"name":"","type":"string","internalType":"string"}],"stateMutability":"view"},{"type":"function","name":"totalSupply","inputs":[],"outputs":[{"name":"","type":"uint256","internalType":"uint256"}],"stateMutability":"view"},{"type":"function","name":"transfer","inputs":[{"name":"to","type":"address","internalType":"address"},{"name":"encryptedAmount","type":"bytes32","internalType":"externalEuint64"},{"name":"inputProof","type":"bytes","internalType":"bytes"}],"outputs":[{"name":"success","type":"bool","internalType":"bool"}],"stateMutability":"nonpayable"},{"type":"function","name":"transferFrom","inputs":[{"name":"from","type":"address","internalType":"address"},{"name":"to","type":"address","internalType":"address"},{"name":"amount","type":"bytes32","internalType":"euint64"}],"outputs":[{"name":"success","type":"bool","internalType":"bool"}],"stateMutability":"nonpayable"},{"type":"event","name":"Mint","inputs":[{"name":"to","type":"address","indexed":true,"internalType":"address"},{"name":"amount","type":"uint256","indexed":false,"internalType":"uint256"}],"anonymous":false},{"type":"event","name":"Transfer","inputs":[{"name":"from","type":"address","indexed":true,"internalType":"address"},{"name":"to","type":"address","indexed":true,"internalType":"address"}],"anonymous":false},{"type":"error","name":"SenderNotAllowedToUseHandle","inputs":[{"name":"handle","type":"bytes32","internalType":"bytes32"},{"name":"sender","type":"address","internalType":"address"}]},{"type":"error","name":"ZamaProtocolUnsupported","inputs":[]}],"bytecode":{"object":"0x608060405234801561000f575f80fd5b5060405161133e38038061133e83398101604081905261002e9161034e565b6100e2610039610102565b80517f9e7b61f58c47dc699ac88507c4f5bb9f121c03808c5676a8078fe583e464970080546001600160a01b03199081166001600160a01b039384161790915560208301517f9e7b61f58c47dc699ac88507c4f5bb9f121c03808c5676a8078fe583e46497018054831691841691909117905560408301517f9e7b61f58c47dc699ac88507c4f5bb9f121c03808c5676a8078fe583e46497028054909216921691909117905550565b5f6100ed8382610437565b5060016100fa8282610437565b5050506104f1565b604080516060810182525f80825260208201819052918101919091524660010361019b575060408051606080820183525f8083526020808401829052928401528251908101835273ca2e8f1f656cd25c01f05d0b243ab1ecd4a8ffb6815273d82385dada1ae3e969447f20a3164f6213100e75918101919091527377627828a55156b04ac0dc0eb30467f1a552bb039181019190915290565b4662aa36a70361021a575060408051606080820183525f8083526020808401829052928401528251908101835273f0ffdc93b7e186bc2f8cb3daa75d86d1930a433d81527392c920834ec8941d2c77d188936e1f7a6f49c1279181019190915273be0e383937d564d7ff0bc3b46c51f0bf8d5c311a9181019190915290565b46617a6903610298575060408051606080820183525f808352602080840182905292840152825190810183527350157cffd6bbfa2dece204a89ec419c23ef5755d815273e3a9105a3a932253a70f126eb1e3b589c643dd249181019190915273901f8942346f7ab3a01f6d7613119bca447bb0309181019190915290565b6040516373cac13b60e01b815260040160405180910390fd5b634e487b7160e01b5f52604160045260245ffd5b5f82601f8301126102d4575f80fd5b81516001600160401b038111156102ed576102ed6102b1565b604051601f8201601f19908116603f011681016001600160401b038111828210171561031b5761031b6102b1565b604052818152838201602001851015610332575f80fd5b8160208501602083015e5f918101602001919091529392505050565b5f806040838503121561035f575f80fd5b82516001600160401b03811115610374575f80fd5b610380858286016102c5565b602085015190935090506001600160401b0381111561039d575f80fd5b6103a9858286016102c5565b9150509250929050565b600181811c908216806103c757607f821691505b6020821081036103e557634e487b7160e01b5f52602260045260245ffd5b50919050565b601f82111561043257805f5260205f20601f840160051c810160208510156104105750805b601f840160051c820191505b8181101561042f575f815560010161041c565b50505b505050565b81516001600160401b03811115610450576104506102b1565b6104648161045e84546103b3565b846103eb565b6020601f821160018114610496575f831561047f5750848201515b5f19600385901b1c1916600184901b17845561042f565b5f84815260208120601f198516915b828110156104c557878501518255602094850194600190920191016104a5565b50848210156104e257868401515f19600387901b60f8161c191681555b50505050600190811b01905550565b610e40806104fe5f395ff3fe608060405234801561000f575f80fd5b5060043610610090575f3560e01c806340c10f191161006357806340c10f191461010b57806370a08231146101205780637b7e0a5a1461014857806395d89b411461016b578063b3c06f5014610173575f80fd5b8063019f4b6b1461009457806306fdde03146100c557806318160ddd146100da578063313ce567146100f1575b5f80fd5b6100a76100a2366004610b6a565b610186565b60405167ffffffffffffffff90911681526020015b60405180910390f35b6100cd6101a5565b6040516100bc9190610bb1565b6100e360035481565b6040519081526020016100bc565b6100f9601281565b60405160ff90911681526020016100bc565b61011e610119366004610bc3565b610230565b005b6100e361012e366004610b6a565b6001600160a01b03165f9081526002602052604090205490565b61015b610156366004610beb565b610371565b60405190151581526020016100bc565b6100cd6104fe565b61015b610181366004610c6e565b61050b565b6001600160a01b0381165f908152600260205260408120545b92915050565b5f80546101b190610ca8565b80601f01602080910402602001604051908101604052809291908181526020018280546101dd90610ca8565b80156102285780601f106101ff57610100808354040283529160200191610228565b820191905f5260205f20905b81548152906001019060200180831161020b57829003601f168201915b505050505081565b6001600160a01b0382166102825760405162461bcd60e51b81526020600482015260146024820152736d696e7420746f207a65726f206164647265737360601b60448201526064015b60405180910390fd5b67ffffffffffffffff8111156102cd5760405162461bcd60e51b815260206004820152601060248201526f616d6f756e7420746f6f206c6172676560801b6044820152606401610279565b5f6102d7826106c1565b6001600160a01b0384165f908152600260205260409020549091506102fc90826106d7565b6001600160a01b0384165f9081526002602052604081209190915560038054849290610329908490610ce0565b90915550506040518281526001600160a01b038416907f0f6798a560793a54c3bcfe86a93cde1e73087d944c0ea20544137d41213968859060200160405180910390a2505050565b5f6001600160a01b0385166103c35760405162461bcd60e51b81526020600482015260186024820152777472616e7366657220746f207a65726f206164647265737360401b6044820152606401610279565b5f6104038585858080601f0160208091040260200160405190810160405280939291908181526020018383808284375f9201919091525061070592505050565b335f908152600260205260408120549192509061042190839061076b565b9050806104675760405162461bcd60e51b8152602060048201526014602482015273696e73756666696369656e742062616c616e636560601b6044820152606401610279565b335f908152600260205260409020546104809083610799565b335f90815260026020526040808220929092556001600160a01b038916815220546104ab90836106d7565b6001600160a01b0388165f81815260026020526040808220939093559151909133917f4853ae1b4d437c4255ac16cd3ceda3465975023f27cb141584cd9d44440fed829190a35060019695505050505050565b600180546101b190610ca8565b5f6001600160a01b0384166105625760405162461bcd60e51b815260206004820152601a60248201527f7472616e736665722066726f6d207a65726f20616464726573730000000000006044820152606401610279565b6001600160a01b0383166105b35760405162461bcd60e51b81526020600482015260186024820152777472616e7366657220746f207a65726f206164647265737360401b6044820152606401610279565b6001600160a01b0384165f908152600260205260408120546105d690849061076b565b90508061061c5760405162461bcd60e51b8152602060048201526014602482015273696e73756666696369656e742062616c616e636560601b6044820152606401610279565b6001600160a01b0385165f9081526002602052604090205461063e9084610799565b6001600160a01b038087165f90815260026020526040808220939093559086168152205461066c90846106d7565b6001600160a01b038086165f818152600260205260408082209490945592519092918816917f4853ae1b4d437c4255ac16cd3ceda3465975023f27cb141584cd9d44440fed8291a360019150505b9392505050565b5f61019f8267ffffffffffffffff1660056107c7565b5f826106e9576106e65f6106c1565b92505b816106fa576106f75f6106c1565b91505b6106ba83835f61085e565b5f81515f146107215761071a8383600561090b565b905061019f565b825f81900361073b576107335f6106c1565b91505061019f565b6107458133610a05565b61071a57604051630276b5d960e01b815260048101829052336024820152604401610279565b5f8261077d5761077a5f6106c1565b92505b8161078e5761078b5f6106c1565b91505b6106ba83835f610a89565b5f826107ab576107a85f6106c1565b92505b816107bc576107b95f6106c1565b91505b6106ba83835f610aec565b5f80516020610dcb83398151915254604051639cd07acb60e01b81525f915f80516020610deb833981519152916001600160a01b0390911690639cd07acb906108169087908790600401610d1f565b6020604051808303815f875af1158015610832573d5f803e3d5ffd5b505050506040513d601f19601f820116820180604052508101906108569190610d33565b949350505050565b5f8082156108715750600160f81b610874565b505f5b5f80516020610dcb8339815191525460405163022f65e760e31b81525f80516020610deb833981519152916001600160a01b03169063117b2f38906108c190899089908790600401610d4a565b6020604051808303815f875af11580156108dd573d5f803e3d5ffd5b505050506040513d601f19601f820116820180604052508101906109019190610d33565b9695505050505050565b5f80516020610dcb8339815191525460405163045fc19560e11b81525f915f80516020610deb833981519152916001600160a01b03909116906308bf832a9061095e908890339089908990600401610d6a565b6020604051808303815f875af115801561097a573d5f803e3d5ffd5b505050506040513d601f19601f8201168201806040525081019061099e9190610d33565b8154604051630f8e573b60e21b8152600481018390523360248201529193506001600160a01b031690633e395cec906044015f604051808303815f87803b1580156109e7575f80fd5b505af11580156109f9573d5f803e3d5ffd5b50505050509392505050565b5f805f80516020610deb83398151915280546040516382027b6d60e01b8152600481018790526001600160a01b0386811660248301529293509116906382027b6d90604401602060405180830381865afa158015610a65573d5f803e3d5ffd5b505050506040513d601f19601f820116820180604052508101906108569190610dab565b5f808215610a9c5750600160f81b610a9f565b505f5b5f80516020610dcb83398151915254604051631d44e90160e21b81525f80516020610deb833981519152916001600160a01b031690637513a404906108c190899089908790600401610d4a565b5f808215610aff5750600160f81b610b02565b505f5b5f80516020610dcb833981519152546040516303056db360e31b81525f80516020610deb833981519152916001600160a01b03169063182b6d98906108c190899089908790600401610d4a565b80356001600160a01b0381168114610b65575f80fd5b919050565b5f60208284031215610b7a575f80fd5b6106ba82610b4f565b5f81518084528060208401602086015e5f602082860101526020601f19601f83011685010191505092915050565b602081525f6106ba6020830184610b83565b5f8060408385031215610bd4575f80fd5b610bdd83610b4f565b946020939093013593505050565b5f805f8060608587031215610bfe575f80fd5b610c0785610b4f565b935060208501359250604085013567ffffffffffffffff811115610c29575f80fd5b8501601f81018713610c39575f80fd5b803567ffffffffffffffff811115610c4f575f80fd5b876020828401011115610c60575f80fd5b949793965060200194505050565b5f805f60608486031215610c80575f80fd5b610c8984610b4f565b9250610c9760208501610b4f565b929592945050506040919091013590565b600181811c90821680610cbc57607f821691505b602082108103610cda57634e487b7160e01b5f52602260045260245ffd5b50919050565b8082018082111561019f57634e487b7160e01b5f52601160045260245ffd5b60548110610d1b57634e487b7160e01b5f52602160045260245ffd5b9052565b828152604081016106ba6020830184610cff565b5f60208284031215610d43575f80fd5b5051919050565b92835260208301919091526001600160f81b031916604082015260600190565b8481526001600160a01b03841660208201526080604082018190525f90610d9390830185610b83565b9050610da26060830184610cff565b95945050505050565b5f60208284031215610dbb575f80fd5b815180151581146106ba575f80fdfe9e7b61f58c47dc699ac88507c4f5bb9f121c03808c5676a8078fe583e46497019e7b61f58c47dc699ac88507c4f5bb9f121c03808c5676a8078fe583e4649700a2646970667358221220239b138c1ece477c56c95602ffc1c02bd9d646f9ac8378c0a131da2616de6fc364736f6c634300081a0033","linkReferences":{}},"methodIdentifiers":{"balanceOf(address)":"70a08231","balanceOfDecrypted(address)":"019f4b6b","decimals()":"313ce567","mint(address,uint256)":"40c10f19","name()":"06fdde03","symbol()":"95d89b41","totalSupply()":"18160ddd","transfer(address,bytes32,bytes)":"7b7e0a5a","transferFrom(address,address,bytes32)":"b3c06f50"},"id":30}